:020000040800F2
:10000000000008249D120008850E00088D0E0008CF
:10001000950E00089D0E0008A50E000800000000C7
:10002000000000000000000000000000B10E000809
:10003000BF0E000800000000CD0E0008DB0E000817
:10004000ED120008ED120008ED120008ED12000894
:10005000ED120008ED120008ED120008ED12000884
:10006000ED120008ED120008ED120008ED12000874
:10007000ED120008ED120008ED120008ED12000864
:10008000ED120008ED120008ED120008ED12000854
:10009000ED120008ED120008ED120008ED12000844
:1000A000ED120008ED120008ED120008ED12000834
:1000B000ED120008ED120008ED120008ED12000824
:1000C000ED120008ED120008ED120008ED12000814
:1000D000ED120008ED120008ED120008ED12000804
:1000E000ED120008ED12000800000000ED120008FB
:1000F000ED120008ED120008ED120008ED120008E4
:10010000ED120008ED120008ED120008ED120008D3
:10011000ED120008ED120008E90E0008ED120008CB
:10012000ED120008ED120008ED120008ED120008B3
:10013000ED120008ED120008ED120008ED120008A3
:10014000ED120008ED1200080000000000000000A1
:10015000ED120008ED120008ED120008ED12000883
:10016000ED120008ED120008ED120008ED12000873
:10017000ED120008ED120008ED120008000000006A
:10018000ED120008ED120008ED120008ED12000853
:10019000ED120008ED120008ED120008ED12000843
:1001A000ED120008ED120008ED120008ED12000833
:1001B000ED120008ED120008ED120008ED12000823
:1001C000ED120008ED120008ED120008ED12000813
:1001D000ED120008ED120008ED120008ED12000803
:1001E000ED120008ED120008ED120008ED120008F3
:1001F000ED120008ED120008ED120008ED120008E3
:10020000ED120008ED120008ED120008ED120008D2
:10021000ED120008ED120008ED120008ED120008C2
:10022000ED120008ED120008ED120008ED120008B2
:10023000ED120008ED120008ED120008ED120008A2
:10024000ED120008ED120008ED120008ED12000892
:10025000ED120008ED120008ED120008ED12000882
:10026000ED120008ED120008ED120008ED12000872
:10027000ED120008ED120008ED120008ED12000862
:10028000ED120008ED120008ED1200080000000059
:08029000ED120008ED12000858
:1002A00010B5054C237833B9044B13B10448AFF3B0
:1002B00000800123237010BDA00000240000000076
:1002C0009820010808B5034B1BB103490348AFF35D
:1002D000008008BD00000000A40000249820010850
:1002E000034613F8012B002AFBD1181A0138704776
:1002F00001F0FF01102A2BDB10F0070F08D010F8D7
:10030000013B013A8B422DD010F0070F42B3F6D1DA
:10031000F0B441EA012141EA014122F007047FF0F3
:1003200000070023F0E80256083C85EA010586EA4A
:10033000010685FA47F5A3FA87F586FA47F6A5FA86
:1003400087F68EB9EED1F0BC01F0FF0102F0070292
:1003500032B110F8013B013A83EA010313B1F8D13D
:100360000020704701387047002D06BF354603381E
:10037000073815F0010F07D1013015F4807F02BF57
:10038000013015F4C03F0130F0BC0138704700BFA8
:1003900080B400AF3F4BD3F888303E4A43F470033B
:1003A000C2F888303B4B1B693A4A43F01003136193
:1003B000394B1B6803F00F03062B07D8364B1B681D
:1003C00023F00F03344A43F007031360334B1B68D9
:1003D000324A43F001031360304B00221A612F4B65
:1003E0001A682E492E4B13400B602B4B1B6803F0F1
:1003F0000803002B07D0284B1B6823F00F03264A65
:1004000043F007031360254B00229A61234B00221F
:10041000DA61224B00221A62204B224A9A621F4B59
:10042000214ADA621D4B214A1A631C4B00225A638F
:100430001A4B1E4A9A63194B0022DA63174B1B4A68
:100440001A64164B00225A64144B1B68134A23F497
:1004500080231360114B00221A66154B5B6A144A05
:1004600043F480435362134B1A68134B1340B3F1A8
:10047000005F02D2114B01221A60114B43F2D202EB
:100480001A60044B4FF000629A6000BFBD465DF8F1
:10049000047B704700ED00E0002000520044025849
:1004A0007FEDF6EA000202020000FF018002010176
:1004B000C00000580010005C0000FFFF08810051E0
:1004C0000040005280B500AF044810F0E5FE02F095
:1004D000A1FE034810F0E0FE00BF80BDB02001087F
:1004E000D420010880B58AB000AF78607B687B6259
:1004F000796A184810F068FE7B6A174A934220D840
:100500000023FB6000233B6102237B610023BB616E
:100510000723FB6120233B6207F10C0207F1100364
:100520001146184602F076FF0346002B04D00B4814
:1005300010F0B2FE012309E0094810F0ADFE0023DF
:1005400004E0796A074810F03FFE01231846283777
:10055000BD4680BDF020010800001E081C210108D6
:10056000302101085421010880B588B000AFF8603F
:10057000B9601346FB8002F04DFE0346FB75FB7D20
:10058000002B01D0FB7D40E00023FB6136E0FA88C0
:10059000FB69D31A102B28BF1023BB82FB699B0079
:1005A000BA68D118BB8A9B001A461A4810F0D9FFC6
:1005B0000023BB611BE0FB681968BB699B00154AFF
:1005C00013441A46012002F093FD0346FB75FB7DA0
:1005D000002B03D002F058FEFB7D16E0FB681B6881
:1005E00003F12002FB681A60BB690833BB61BB8A58
:1005F000BA699A42DFDBFB691033FB61FB88FA6959
:100600009A42C4D302F040FE002318462037BD466C
:1006100080BD00BFBC00002480B483B000AF786010
:100620004FF06043D3F8803E03F00103002B13D05A
:100630004FF06043D3F8003E03F00103002B0BD0D2
:1006400000E000BF4FF060431B68002BF9D04FF073
:1006500060437A68D2B21A707B6818460C37BD4680
:100660005DF8047B704780B586B000AFF860B96074
:100670007A6000237B6109E0BB685A1CBA601B7872
:100680001846FFF7C9FF7B6901337B617A697B6894
:100690009A42F1DB7B6818461837BD4680BD0000E2
:1006A00080B584B000AF00F0DBFA6D4B5B6903F4FA
:1006B0000033002B1BD1BFF34F8F00BFBFF36F8FF1
:1006C00000BF674B0022C3F85022BFF34F8F00BF1B
:1006D000BFF36F8F00BF624B5B69614A43F4003325
:1006E0005361BFF34F8F00BFBFF36F8F00E000BFB8
:1006F0005B4B5B6903F48033002B38D1584B0022ED
:10070000C3F88420BFF34F8F00BF554BD3F8803020
:10071000BB60BB685B0BC3F30E037B60BB68DB088D
:10072000C3F309033B607B685A0143F6E07313404F
:100730003A6892074A491343C1F860323B685A1E2F
:100740003A60002BEFD17B685A1E7A60002BE5D10E
:10075000BFF34F8F00BF424B5B69414A43F4803384
:100760005361BFF34F8F00BFBFF36F8F00E000BF37
:1007700000F0C4FE00F084F800F084F900F02EF9D7
:100780004FF47A7000F016FF364810F085FD012214
:100790004FF48041344803F077F94FF4FA7000F0D9
:1007A00009FF00224FF480412F4803F06DF94FF408
:1007B000FA7000F0FFFE01224FF480412A4803F056
:1007C00063F94FF47A7000F0F5FE04F0F5FE4FF493
:1007D0007A7000F0EFFE4FF404520021002005F083
:1007E00019FC4FF47A7000F0E5FE05F049F94FF07E
:1007F0006053FB60FB681B681C4A934206D1FB6890
:1008000000221A601A4810F047FD04E0194810F061
:1008100043FD00F003FA322000F0CCFE164810F041
:100820003BFD322000F0C6FE14480FF02DFD3220B3
:1008300000F0C0FE00224FF480410B4803F024F981
:1008400005F01EF9322000F0B5FE01224FF4804180
:10085000054803F019F9322000F0ACFE00BFE9E7CB
:1008600000ED00E078210108000C0258EFBEADDE7B
:1008700088210108B0210108E021010808000024B6
:1008800080B59EB000AF07F12C034C220021184622
:1008900010F0F2FD07F10C0320220021184610F0A1
:1008A000EBFD022003F00AF90023BB60484BDB6A32
:1008B000474A23F00103D362454BDB6A03F001038F
:1008C000BB60444B9B69434A43F440439361414BB3
:1008D0009B6903F44043BB60BB6800BF3D4B9B6911
:1008E00003F40053B3F5005FF8D13B4BD3F8F43079
:1008F000394A43F00203C2F8F430374BD3F8F430EE
:1009000003F002037B607B6800233B60314B9B69F3
:10091000304A43F4404393612E4B9B6903F44043B8
:100920003B602B4BDB6A2A4A43F00103D362284B1E
:10093000DB6A03F001033B603B6800BF254B9B690A
:1009400003F40053B3F5005FF8D10123FB624FF4C9
:10095000A0233B6302233B6502237B650223BB6527
:100960004023FB6504233B6602237B660423BB66AE
:100970000C23FB6600233B6700237B6707F12C03F6
:10098000184603F0F5F80346002B01D000F0CCF92F
:100990003F23FB6003233B6100237B610023BB619A
:1009A0004023FB6140233B624FF480637B62402322
:1009B000BB6207F10C030221184603F033FD034626
:1009C000002B01D000F0B0F900BF7837BD4680BDE4
:1009D00000040058004802580044025880B588B00E
:1009E00000AF07F1100300221A605A609A60DA60C3
:1009F0003B1D00221A605A609A60204B204A1A6000
:100A00001E4B3B225A601D4B00229A601B4B4FF637
:100A1000FF72DA60194B00221A61184B00225A61EA
:100A2000164B80229A61154804F0B4F80346002B57
:100A300001D000F079F94FF480533B6107F11003C6
:100A400019460E4804F07EFA0346002B01D000F050
:100A50006BF900237B600023BB600023FB603B1D20
:100A60001946064804F0D2FC0346002B01D000F0E2
:100A70005BF900BF2037BD4680BD00BFFC000024ED
:100A80000000014080B58CB000AF07F11C030022CC
:100A90001A605A609A60DA601A615B4BD3F8E030F2
:100AA000594A43F00203C2F8E030574BD3F8E03024
:100AB00003F00203BB61BB69534BD3F8E030524AE9
:100AC00043F00103C2F8E0304F4BD3F8E03003F0BD
:100AD00001037B617B694C4BD3F8E0304A4A43F019
:100AE0004003C2F8E030484BD3F8E03003F0400355
:100AF0003B613B69444BD3F8E030434A43F0200369
:100B0000C2F8E030404BD3F8E03003F02003FB6044
:100B1000FB683D4BD3F8E0303B4A43F00403C2F896
:100B2000E030394BD3F8E03003F00403BB60BB681E
:100B3000354BD3F8E030344A43F00803C2F8E030D4
:100B4000314BD3F8E03003F008037B607B68002270
:100B50004FF4D0712D4802F097FF002220212C483D
:100B600002F092FF00224FF480412A4802F08CFFED
:100B7000A023FB6101233B6200237B620323BB6252
:100B800007F11C031946214802F0B6FD4FF48073AB
:100B9000FB6101233B6202237B620323BB6207F1FB
:100BA0001C031946194802F0A7FD4FF4F873FB61C6
:100BB00000233B6202237B6207F11C03194616489F
:100BC00002F09AFD2023FB6101233B6200237B623C
:100BD0000323BB6207F11C0319460D4802F08CFD8C
:100BE0004FF48043FB6101233B6200237B620023BF
:100BF000BB6207F11C031946064802F07DFD00BFE9
:100C00003037BD4680BD00BF004402580004025882
:100C100000000258000C02580014025880B584B03D
:100C200000AF4FF001631A680B4B1340B3F1105F34
:100C30000ED10A4B1B68FB60FB68BB604FF0016381
:100C40001B687B607B6883F3088800BFBB6898479C
:100C500000BF1037BD4680BD000080FF04001008B3
:100C600080B584B000AF3B4600221A605A609A609B
:100C7000DA6000F0DFFD01233B7000237B7000236E
:100C80007B601F233B7287237B720023BB72002390
:100C9000FB7201233B7301237B730023BB7300238F
:100CA000FB733B46184600F0FDFD01237B70134BA0
:100CB0007B6010233B7200237B720123BB720323F2
:100CC000FB7200237B733B46184600F0EBFD0223CA
:100CD0007B700B4B7B6008233B720023BB720123AC
:100CE0007B730123FB733B46184600F0DBFD0420B9
:100CF00000F0B8FD00BF1037BD4680BD00000230D7
:100D00000000043080B582B000AF78607B681B685B
:100D1000044A934201D100F02DFC00BF0837BD46C4
:100D200080BD00BF0010004080B400AF72B600BFAD
:100D300000BFFDE780B483B000AF0A4BD3F8F430B6
:100D4000084A43F00203C2F8F430064BD3F8F430FB
:100D500003F002037B607B6800BF0C37BD465DF883
:100D6000047B70470044025880B485B000AF7860BF
:100D70007B681B680B4A93420ED10B4BD3F8F030C3
:100D8000094A43F00103C2F8F030074BD3F8F030C2
:100D900003F00103FB60FB6800BF1437BD465DF83C
:100DA000047B7047000001400044025880B590B0B9
:100DB00000AF78607B680F2B27D800227968362037
:100DC00000F00BFD362000F022FD294A7B681360FD
:100DD000284BD3F8E830274A43F01003C2F8E83034
:100DE000244BD3F8E83003F01003FB60FB6807F1F5
:100DF000100207F114031146184603F089FEBB6A7E
:100E0000BB63BB6B002B06D101E001232BE003F099
:100E100069FEF86304E003F065FE03465B00FB63D4
:100E2000FB6B154AA2FB03239B0C013B7B63134B1B
:100E3000134A1A60114B40F2E732DA600F4A7B6BBB
:100E400053600E4B00221A610C4B00229A600B4833
:100E500003F0A0FE0346002B04D1084803F0F2FE85
:100E6000034600E0012318464037BD4680BD00BF61
:100E70001C0000240044025883DE1B434C01002464
:100E80000010004080B400AF00BFFDE780B400AFA9
:100E900000BFFDE780B400AF00BFFDE780B400AF46
:100EA00000BFFDE780B500AF00F0BFFC00BFFDE76D
:100EB00080B400AF00BFBD465DF8047B704780B4CE
:100EC00000AF00BFBD465DF8047B704780B400AF43
:100ED00000BFBD465DF8047B704780B400AF00BF23
:100EE000BD465DF8047B704780B500AF024803F053
:100EF00021FF00BF80BD00BF4C01002480B400AFC3
:100F000001231846BD465DF8047B704780B483B06A
:100F100000AF78603960054B16221A604FF0FF333E
:100F200018460C37BD465DF8047B704728C801247D
:100F300080B582B000AF78604FF0FF317868FFF77E
:100F4000E5FF00BFFDE780B586B000AFF860B9608F
:100F50007A6000237B610AE0AFF300800146BB6842
:100F60005A1CBA60CAB21A707B6901337B617A6914
:100F70007B689A42F0DB7B6818461837BD4680BD17
:100F800080B483B000AF78604FF0FF3318460C3761
:100F9000BD465DF8047B704780B483B000AF7860D5
:100FA00039603B684FF400525A60002318460C37F2
:100FB000BD465DF8047B704780B483B000AF7860B5
:100FC000012318460C37BD465DF8047B704780B49A
:100FD00085B000AFF860B9607A6000231846143716
:100FE000BD465DF8047B704780B487B000AF786081
:100FF000144A154BD31A7B617B693B61134B1B6809
:10100000002B02D1114B124A1A60104B1A687B68F0
:1010100013443A699A4205D20E4B0C221A604FF0E3
:10102000FF3309E0094B1B68FB60084B1A687B68BB
:101030001344064A1360FB6818461C37BD465DF82A
:10104000047B70470000082400000200980100247F
:1010500038C8012428C8012480B586B000AFF860E4
:10106000B9601346FB714FF001637B61FB79BA688D
:10107000F9680F4810F0A8F8FB79002B0FD00D4845
:1010800010F00AF9FFF71EFA7869FFF72BFA03460A
:10109000002B04D0084810F0FFF8002304E0796921
:1010A000064810F091F87B6918461837BD4680BD98
:1010B000102201083C220108642201088022010854
:1010C00080B582B000AF78607B681946044810F0A4
:1010D0007BF8FFF7A3FD00BF0837BD4680BD00BF0A
:1010E000A422010880B584B000AFF860B9607A60CE
:1010F000FB687A681946094810F066F87B681A465A
:10110000F968B86810F02DFA7968054810F05CF8B5
:101110007B6818461037BD4680BD00BFC02201085D
:10112000E422010880B5ADF5067D00AF07F5067332
:10113000A3F50573186007F50673A3F50673196028
:10114000504B196807F50673A3F506731B681B89D6
:101150001A4607F50673A3F506731B685B894A48B0
:1011600010F032F807F50673A3F506731B685B6889
:1011700003F00303002B1CD0444810F08DF807F552
:101180000673A3F506731B68596807F50673A3F584
:1011900006731B685B891A4607F10C03184610F0AA
:1011A000E0F907F50673A3F506731B6807F10C0257
:1011B0005A6007F50673A3F506731B685B6819464A
:1011C00007F50673A3F506731B685B891A4630485A
:1011D0000FF0FAFF07F50673A3F506731B685B892A
:1011E0009B08A7F8123207F50673A3F506731B6870
:1011F0005B68B7F8122219462248FFF7B5F9C7F81D
:101200000C02D7F80C32002B07D0D7F80C1221486B
:101210000FF0DAFF4FF0FF332FE00023C7F814324E
:101220001FE007F50673A3F506731B685A68D7F825
:1012300014329B00D11807F50673A3F506731B68DB
:101240005A68D7F814329B0013441B680A46D7F833
:10125000141211480FF0B8FFD7F814320133C7F851
:101260001432B7F81232D7F814229A42D9DB07F5B4
:101270000673A3F506731B685B89184607F50677A6
:10128000BD4680BD180000240C2301084823010836
:10129000702301089C230108D0230108DFF834D013
:1012A000FFF776F80C480D490D4A002302E0D458A8
:1012B000C4500433C4188C42F9D30A4A0A4C0023A0
:1012C00001E013600432A242FBD310F023F9FFF7D0
:1012D000E7F970470000082400000024A000002463
:1012E000DC560108A000002438C80124FEE780B4C1
:1012F00083B000AF786039607B68002B0BD03B680F
:10130000DB68002B07D03B689B68002B03D03B6851
:101310001B69002B02D14FF0FF3314E03B681A68C1
:101320007B689A603B685A687B68DA603B68DA6879
:101330007B685A613B689A687B681A613B681A69E6
:101340007B689A61002318460C37BD465DF8047B24
:10135000704780B586B000AF78600023FB60002343
:101360007B6100233B617B685B68002B39D17B6824
:101370009B68002B02D07B689B6898477B68202283
:101380001A6000237B611CE07B685B6907F10C023B
:101390001221786998470346002B03DA6FF00403A3
:1013A0003B610BE0FB6803F01F037A699A4205D1A9
:1013B0007B687A691A6000233B6105E07B69013331
:1013C0007B617B691F2BDFD97B681B681F2B02D9D0
:1013D0006FF002033B613B69002B02D17B68012265
:1013E0005A603B6918461837BD4680BD80B584B049
:1013F00000AF78600023FB607B685B697A681068E7
:1014000007F10C02012198470346002B02DA6FF026
:1014100004036EE07B685B697A68106807F10C0270
:10142000012198470346002B02DA6FF0040360E0C5
:10143000FB6803F00403002B01D1012359E07B6812
:101440005B697A68106807F10C020021984703462F
:10145000002B02DA6FF004034BE0FB6803F48053C7
:10146000002B1BD1FB6803F40053002B06D0FB6854
:1014700003F48073002B01D002233AE0FB6803F4ED
:101480000053002B01D0032333E0FB6803F4807387
:10149000002B01D004232CE005232AE07B685B6944
:1014A0007A68106807F10C021F2198470346002B49
:1014B00002DA6FF004031CE0FB6803F48053002B96
:1014C00001D1062315E0FB6803F01C03182B01D1A2
:1014D00002230EE0FB6803F01C03082B01D1032359
:1014E00007E0FB6803F01C03142B01D1042300E088
:1014F000052318461037BD4680BD000080B582B078
:1015000000AF032000F05EF903F042F90246154BEC
:101510009B691B0A03F00F031349CB5C03F01F0305
:1015200022FA03F37B600F4B9B6903F00F030E4A13
:10153000D35C03F01F037A6822FA03F30B4A1360AB
:101540000B4A7B6813600F20FFF730FC0346002B2B
:1015500001D0012302E0FFF7EDFB00231846083716
:10156000BD4680BD00440258DC540108040000243C
:101570000000002480B400AF064B1B781A46064BCF
:101580001B681344044A136000BFBD465DF8047B2A
:10159000704700BF200000249C01002480B400AFED
:1015A000034B1B681846BD465DF8047B704700BFBF
:1015B0009C01002480B584B000AF7860FFF7EEFF97
:1015C000B8607B68FB60FB68B3F1FF3F05D00A4B56
:1015D0001B781A46FB681344FB6000BFFFF7DEFF71
:1015E0000246BB68D31AFA689A42F7D800BF00BF18
:1015F0001037BD4680BD00BF2000002480B400AF7E
:10160000034B1B681B0C1846BD465DF8047B7047F6
:101610000010005C80B483B000AF7860064B5B685C
:1016200023F4600204497B6813434B6000BF0C370E
:10163000BD465DF8047B70470004005880B485B057
:1016400000AF78607B6803F00703FB600B4BDB683F
:10165000BB60BA684FF6FF031340BB60FB681A0219
:10166000BB681A43064B1343BB60044ABB68D36094
:1016700000BF1437BD465DF8047B704700ED00E005
:101680000000FA0580B400AF044BDB681B0A03F0CE
:1016900007031846BD465DF8047B704700ED00E087
:1016A00080B483B000AF0346FB80B7F90630002B4F
:1016B0000BDBFB8803F01F020749B7F906305B0913
:1016C000012000FA02F241F8232000BF0C37BD468A
:1016D0005DF8047B704700BF00E100E080B483B098
:1016E00000AF03463960FB80B7F90630002B0ADBF8
:1016F0003B68DAB20C49B7F906301201D2B20B449A
:1017000083F800230AE03B68DAB20849FB8803F05B
:101710000F03043B1201D2B20B441A7600BF0C3700
:10172000BD465DF8047B704700E100E000ED00E09D
:1017300080B489B000AFF860B9607A60FB6803F0EC
:101740000703FB61FB69C3F10703042B28BF0423D4
:10175000BB61FB690433062B02D9FB69033B00E044
:1017600000237B614FF0FF32BB6902FA03F3DA43D7
:10177000BB681A407B699A404FF0FF317B6901FAE0
:1017800003F3D9437B680B40134318462437BD4607
:101790005DF8047B7047000080B400AFBFF34F8F4B
:1017A00000BF064BDB6803F4E0620449044B1343BB
:1017B000CB60BFF34F8F00BF00BFFDE700ED00E03F
:1017C0000400FA0580B582B000AF78607868FFF752
:1017D00035FF00BF0837BD4680BD80B586B000AF7D
:1017E0000346B9607A60FB81FFF74CFF78617A6845
:1017F000B9687869FFF79CFF0246B7F90E301146C9
:101800001846FFF76BFF00BF1837BD4680BD80B597
:1018100082B000AF0346FB80B7F906301846FFF7E9
:101820003FFF00BF0837BD4680BD80B500AFFFF762
:10183000B3FF000080B400AFBFF35F8F00BF074B62
:101840005B6A064A23F480335362054B00225A60D8
:1018500000BFBD465DF8047B704700BF00ED00E0AF
:1018600090ED00E080B483B000AF78600B4A7B68F5
:1018700043F0010353600A4B5B6A094A43F4803327
:101880005362BFF34F8F00BFBFF36F8F00BF00BF26
:101890000C37BD465DF8047B704700BF90ED00E05B
:1018A00000ED00E080B483B000AF78607B685A78C8
:1018B0001B4B9A601A4B1B69194A23F001031361F1
:1018C000174A7B685B68D3607B681B7B1A077B6861
:1018D000DB7A1B061A437B689B7ADB041A437B681E
:1018E0005B7B9B041A437B689B7B5B041A437B688E
:1018F000DB7B1B041A437B685B7A1B021A437B6801
:101900001B7A5B0013437A6812781146044A0B4332
:10191000136100BF0C37BD465DF8047B704700BF04
:1019200090ED00E080B584B000AF78607B68002B5C
:1019300001D10123E3E07B68D3F88430002B06D18A
:101940007B682322C3F88420786804F08BFA6E4BFE
:10195000D3F8F4306C4A43F00203C2F8F4306A4B17
:10196000D3F8F43003F00203BB60BB687B681B7ADA
:10197000002B03D10020FFF74DFE03E04FF40000E1
:10198000FFF748FE614B5B687B681B6803F580537B
:101990001B687A68126843F0010302F580521360F5
:1019A000FFF7FCFDF86011E0FFF7F8FD0246FB6869
:1019B000D31AB3F5FA7F09D97B680422C3F88820CB
:1019C0007B68E022C3F88420012398E07B681B68D1
:1019D00003F580531B6803F00103002BE4D1786802
:1019E00000F0B4FD03F04EF80346494AA2FB03237E
:1019F0009A0C7B681B68013AC3F8DC20786800F019
:101A000097FF7B681B6803F58053D3F8003123F4FC
:101A1000E0137A68126843F4002302F58052C2F89A
:101A200000317B685B6903F00303002B09D07B68FE
:101A30000122C3F888207B68E022C3F884200123B8
:101A40005DE07B681B6803F58053D3F80821314BB8
:101A500013407A68526951007A6812680B4302F5A4
:101A60008052C2F80831786800F0FFFF786801F012
:101A700045F87B685B6805331B781A027B685B68F6
:101A800004331B7819467B681B680A43C3F800239C
:101A90007B685B6803331B781A067B685B680233DC
:101AA0001B781B041A437B685B6801331B781B029D
:101AB0001A437B685B681B7819467B681B680A437E
:101AC000C3F804237B681B68D3F80C177B681A687B
:101AD000114B0B43C2F80C377B681B68D3F8101707
:101AE0007B681A680D4B0B43C2F810377B680022E5
:101AF000C3F888207B681022C3F88420002318468E
:101B00001037BD4680BD00BF004402580004005895
:101B100083DE1B430180FFFF6000020C00C0200C2D
:101B200080B582B000AF78607B68D3F88430102B2A
:101B300053D17B682322C3F884207B680422DA66B1
:101B4000786800F0F3F97B681B681A687B681B688B
:101B500042F002021A607B681B681A687B681B6887
:101B600042F001021A607B681B68D3F8002D7B6885
:101B70001B6842F00102C3F8002D7B681B6803F567
:101B80008053D3F804317A68126843F0010302F5F8
:101B90008052C2F804317B681B6803F58053D3F888
:101BA00008317A68126843F0010302F58052C2F8E6
:101BB00008317B681B6803F58053D3F860317A687D
:101BC000126843F4817302F58052C2F860317B6879
:101BD0002322C3F88420002300E00123184608379D
:101BE000BD4680BD80B483B000AF78607B68D3F819
:101BF0008430232B3FD17B682322C3F884207B6869
:101C00001B6803F58053D3F804317A68126823F017
:101C1000010302F58052C2F804317B681B6803F5AA
:101C20008053D3F808317A68126823F0010302F573
:101C30008052C2F808317B681B681A687B681B6891
:101C400022F001021A607B681B68D3F8002D7B68C4
:101C50001B6842F00102C3F8002D7B681B681A68FC
:101C60007B681B6822F002021A607B681022C3F8AE
:101C70008420002300E0012318460C37BD465DF8A0
:101C8000047B704780B586B000AFF860B9607A60B9
:101C9000BB68002B09D1FB68D3F8883043F0010200
:101CA000FB68C3F8882001237FE0FB68D3F8843009
:101CB000232B79D10022B968F86800F07DFF034634
:101CC000002B09D0FB68D3F8883043F00202FB6890
:101CD000C3F88820012368E0BFF34F8F00BFFB6883
:101CE0009A6AFB68063253F822307B61FB689B6A74
:101CF0005A1CFB689A62FB689B6A032B04D9FB6839
:101D00009B6A1A1FFB689A62FB68996AFB681A68EB
:101D1000FB68063153F8213002F58052C2F82031B9
:101D2000FFF73CFC386139E0FB681B6803F5805322
:101D3000D3F8603103F48053002B12D0FB68D3F842
:101D4000883043F00802FB68C3F88820FB681B68F2
:101D500003F58053D3F86021FB68C3F88C2001237E
:101D600023E07B68B3F1FF3F18D0FFF717FC024672
:101D70003B69D31A7A689A4202D37B68002B0DD153
:101D8000FB68D3F8883043F00402FB68C3F888206E
:101D90007B694FF04052DA60012306E07B69DB6823
:101DA000002BC1DB002300E0012318461837BD4695
:101DB00080BD80B588B000AF7860396000237B615A
:101DC0000023FB743B68002B09D17B68D3F8883073
:101DD00043F001027B68C3F888200123A2E07B68FE
:101DE000D3F88430232B01D001239BE07B68DB6D8B
:101DF000FB617B68FA69123253F82230BB617B6861
:101E0000DB6EC3F10403FB6064E0BB69DB6803F0D5
:101E10008043002B07D0BB695A687B689A67BB690F
:101E20001A687B685A67BB69DB6803F00053002BB4
:101E300003D17B68DB6F002B3AD0BB69DB6803F012
:101E40000053002B05D07B6800221A667B680022B5
:101E50005A66BB69DB68C3F30E027B685B6ED31AFC
:101E6000BB60BB69DB6803F08053002B05D0BB6906
:101E7000DA687B681A670123FB747B6803F17C00D6
:101E80007B6803F18001BB691B691A46BB689BB282
:101E900004F09EF97B681B6E5A1C7B681A667B688F
:101EA0005A6EBB681A447B685A66BB6900221A6185
:101EB000FB690133FB61FB69032B02D9FB69043B1E
:101EC000FB617B68FA69123253F82230BB617B698F
:101ED00001337B61BB69DB68002B06DB7A69FB6839
:101EE0009A4202D2FB7C002B8FD07B68DA6E7B6932
:101EF0001A447B68DA667B68DB6E002B02D0786858
:101F000000F014F87B68FA69DA65FB7C012B08D1D4
:101F10007B68DA6F3B681A607B680022DA6700230F
:101F200000E0012318462037BD4680BD80B588B04B
:101F300000AF78600023BB600123FB747B689B6E5D
:101F4000FB617B68FA69123253F822307B617B684F
:101F5000DB6EBB6138E07B691B69002B12D107F196
:101F60000803184604F004F9BB68002B02D10023D3
:101F7000FB7407E0BB681A467B691A61BB681A46A6
:101F80007B691A60FB7C002B1ED07B689B6D002B4D
:101F900004D07B694FF04142DA6003E07B694FF087
:101FA0000142DA60FB690133FB61FB69032B02D953
:101FB000FB69043BFB617B68FA69123253F82230FB
:101FC0007B61BB69013BBB61BB69002B02D0FB7C21
:101FD000002BC0D17B68DB6EBA699A421BD0FB69CB
:101FE000013303F00303FB60BFF35F8F00BF7B6827
:101FF0001969FA6813465B001344DB00CA187B6852
:102000001B6803F58053C3F828217B68FA699A6638
:102010007B68BA69DA6600BF2037BD4680BD80B5EF
:1020200086B000AFF860B9607A603B60FB681B68FF
:10203000D3F8003203F00103002B01D001233EE06E
:10204000FB681B68D3F800327B617B6923F07872F0
:10205000BB685B0513437B617B6923F4F8127B68E3
:102060001B0413437B617B6943F00C037B617B6939
:1020700043F001037B61FB681B687A69C3F80022A7
:10208000FFF78CFA386109E0FFF788FA02463B69EE
:10209000D31AB3F57A7F01D9012310E0FB681B68DE
:1020A000D3F8003203F00103002BEDD1FB681B686D
:1020B000D3F804329BB21A463B681A6000231846D4
:1020C0001837BD4680BD000080B586B000AFF8600F
:1020D000B9607A603B60FB681B68D3F8003203F09C
:1020E0000103002B01D001233CE0FB681B68D3F8FF
:1020F00000327B617B6923F07872BB685B05134318
:102100007B617B6923F4F8127B681B0413437B61BA
:102110007B6923F00C0343F004037B617B6943F08C
:1021200001037B613B689AB2104BC3F804220F4A4B
:102130007B69C2F80032FFF731FA386109E0FFF736
:102140002DFA02463B69D31AB3F57A7F01D90123F0
:1021500008E0FB681B68D3F8003203F00103002B92
:10216000EDD1002318461837BD4680BD00800240DF
:1021700080B483B000AF786039603B68002B01D138
:102180000123C3E17B681B681B6803F00C023B68FA
:10219000DA627B681B681B6803F01003002B14BF16
:1021A00001230023DBB21A463B6883F828207B68B2
:1021B0001B681B6803F060023B685A627B681B68FF
:1021C0001B6803F48073002B0CBF01230023DBB2D8
:1021D0001A463B6883F820207B681B681B6803F461
:1021E0000073002B14BF01230023DBB21A463B68A7
:1021F000DA777B681B681B6803F48063002B0CBFD5
:1022000001230023DBB21A463B689A777B681B6880
:102210001B6803F40063002B14BF01230023DBB20F
:102220001A463B685A777B681B681B6803F4805327
:10223000002B14BF01230023DBB21A463B681A7738
:102240007B681B681B6803F400523B689A617B68DB
:102250001B681B6803F480423B685A617B681B68FB
:102260001B6803F48033002B14BF01230023DBB26F
:102270001A463B689A747B681B681B6803F400333A
:10228000002B0CBF01230023DBB21A463B685A74B3
:102290007B681B681B6803F40023002B0CBF012321
:1022A0000023DBB21A463B681A747B681B681B6804
:1022B00003F48013002B14BF01230023DBB21A4662
:1022C0003B68DA737B681B681B6803F40013002B00
:1022D00014BF01230023DBB21A463B689A737B6864
:1022E0001B681B6803F48003002B14BF0123002329
:1022F000DBB21A463B685A737B681B681B6803F4A1
:102300000003002B14BF01230023DBB21A463B68F5
:102310001A737B681B681B6803F0E0623B689A6075
:102320007B681B681B6803F00063002B14BF01234C
:102330000023DBB21A463B681A717B681B681B6876
:1023400003F0E0423B681A607B681B685B68C3F37C
:102350000D023B685A637B681B685B6803F480333B
:10236000002B0CBF01230023DBB21A463B6883F825
:1023700032207B681B685B6803F40033002B14BFBA
:1023800001230023DBB21A463B6883F831207B68C7
:102390001B685B6803F48023002B14BF0123002318
:1023A000DBB21A463B6883F830207B681B685B68A9
:1023B00003F08073002B14BF01230023DBB21A4605
:1023C0003B6883F838207B681B685B685B0E03F012
:1023D0001F023B68DA637B681B68DB6803F4807369
:1023E000002B14BF01230023DBB21A463B6883F89D
:1023F00040207B681B68DB6803F00F023B685A646F
:102400007B681B681B6F03F00203002B14BF0123C2
:102410000023DBB21A463B6883F854207B681B68B4
:102420001B6F03F08003002B0CBF01230023DBB2E2
:102430001A463B6883F84C207B681B681B6F03F0CF
:1024400070023B681A657B681B681B6F1B0C9AB295
:102450003B689A647B681B68D3F8903003F00103F3
:10246000002B14BF01230023DBB21A463B6883F81C
:1024700056207B681B68D3F8903003F00203002BD2
:1024800014BF01230023DBB21A463B6883F85520B2
:102490007B681B68D3F8003D03F072023B689A65C5
:1024A0007B681B68D3F8303D03F023023B68DA6594
:1024B0007B681B68D3F8303D03F00803002B14BF82
:1024C00001230023DBB21A463B6883F862207B6855
:1024D0001B68D3F8303D03F01003002B14BF012319
:1024E0000023DBB21A463B6883F861207B681B68D7
:1024F000D3F8303D03F04003002B0CBF0123002331
:10250000DBB21A463B6883F86020002318460C377C
:10251000BD465DF8047B704780B582B000AF78603F
:1025200039603B68002B01D101230BE07B68D3F8B5
:102530008430102B05D13968786800F057F80023F3
:1025400000E0012318460837BD4680BD80B584B041
:1025500000AF78607B681B68D3F80032FB60FB68D3
:1025600023F47063FB6002F08DFAB860BB681A4A0E
:10257000934204D8FB6843F40073FB6022E0BB681D
:10258000164A934204D2FB6843F44073FB6019E09F
:10259000BB68134A934215D9BB68124A934204D8C8
:1025A000FB6843F48073FB600CE0BB680E4A934207
:1025B00004D8FB6843F48063FB6003E0FB6843F4EA
:1025C000A063FB607B681B68FA68C3F8002200BF49
:1025D0001037BD4680BD00BFBF0E160200879303B3
:1025E000FFE0F5057FD1F0087FB2E60E80B485B03C
:1025F00000AF786039603B689A683B681B681A4393
:102600003B681B79DB061A433B681B7BDB051A43DF
:102610003B685B7B9B051A433B689B7B5B051A43CE
:102620003B68DB7B1B0513433A68127C002A02D10E
:102630004FF4002200E0002213433A68527C002A43
:1026400002D14FF4003200E000221A433B689B7C29
:102650001B041A433B685B691A433B689B691A4336
:102660003B681B7F1B031A433B685B7FDB02134302
:102670003A68927F002A02D14FF4806200E0002283
:102680001A433B68DB7F5B0213433A6892F82020D1
:10269000002A02D14FF4807200E000221A433B6806
:1026A0005B6A1A433B6893F828301B011A433B6866
:1026B000DB6A1343FB607B681B681A68564B134048
:1026C0007A681268F9680B4313603B68DB6B5A0643
:1026D0003B6893F838301B061A433B6893F8303058
:1026E0009B041A433B6893F831305B0413433A6808
:1026F00092F83220002A02D14FF4803200E000220A
:102700001A433B685B6B1343FB607B681B685A682A
:10271000424B13407A681268F9680B4353603B6878
:1027200093F840301A023B685B6C1343FB607B6894
:102730001B68DA683A4B13407A681268F9680B43F1
:10274000D3603B6893F854305A003B681B6D1343C9
:102750003A6892F84C20002A01D1802200E0002241
:102760001A433B689B6C1B041343FB607B681B682C
:102770001A6F4FF60D7313407A681268F9680B43AD
:1027800013673B6893F856301A463B6893F8553008
:102790005B001343FB607B681B68D3F8903023F029
:1027A00003017B681B68FA680A43C3F890207B68C2
:1027B0001B68D3F8003D23F072013B689A6D7B687B
:1027C0001B680A43C3F8002D3B68DB6D3A6892F83A
:1027D0006020002A01D1402200E000221A433B6819
:1027E00093F861301B011A433B6893F86230DB00B9
:1027F0001343FB607B681B68D3F8303D23F07B01FB
:102800007B681B68FA680A43C3F8302D00BF143791
:10281000BD465DF8047B7047838004000080F8C0EB
:10282000F0FEFFFF80B485B000AF786039607B6850
:102830001B6803F580531A68384B13403A681168D7
:102840007A6812680B4302F5805213603B681B796B
:102850001A033B689B681A433B681B7BDB031343EB
:10286000FB607B681B6803F580535A682C4B134050
:102870007A681268F9680B4302F5805253603B682E
:102880005B7B1A043B681B6A1343FB607B681B6815
:1028900003F58053D3F80021224B13407A68126865
:1028A000F9680B4302F58052C2F800313B681A699F
:1028B0003B681B7D1B011A433B685B7F1B03134373
:1028C000FB607B681B6803F58053D3F80421164B2B
:1028D00013407A681268F9680B4302F58052C2F817
:1028E00004313B681B7FDA073B689B691343FB603D
:1028F0007B681B6803F58053D3F808210B4B13400A
:102900007A681268F9680B4302F58052C2F8083100
:1029100000BF1437BD465DF8047B7047FD87FFFF9D
:10292000FE2FFFFF00C0FEFFEFEFC0FFFFFFC07FE5
:1029300080B5A4B000AF7860012387F83B30002356
:102940003B65002387F84930002387F84B3001238B
:1029500087F83030012387F85E30012387F83A305A
:10296000002387F85430012387F88C304FF400534C
:102970007B64002387F864300023BB66002387F85C
:102980008D30002387F88E304FF4C3633B660023FD
:1029900087F8383000237B63012387F83D3000231C
:1029A00087F83E30002387F848300023FB67002378
:1029B0007B670023BB65002387F86C30002387F812
:1029C0008230012387F84A302023C7F8883001235A
:1029D00087F84C30002387F85D304FF04053FB629E
:1029E0004FF480433B64002387F839300223C7F853
:1029F0008430002387F88030002387F8813000235B
:102A000087F85C30012387F83C3000233B670123C3
:102A100087F8783007F12C0319467868FFF7E6FD50
:102A200001233B7301233B610023BB60002387F834
:102A3000243000237B7500233B754FF400133B6269
:102A400000233B774FF40013BB61002387F8253048
:102A50004FF40673BB6207F1080319467868FFF765
:102A6000E1FE00BF9037BD4680BD80B485B000AFA9
:102A700078600023FB601DE07B68D968FA68134624
:102A80005B001344DB000B44BB60BB6800221A6090
:102A9000BB6800225A60BB6800229A60BB680022B3
:102AA000DA60B9687B68FA68063243F82210FB687E
:102AB0000133FB60FB68032BDED97B6800229A623E
:102AC0007B681B6803F580531A460323C2F82C3138
:102AD0007B68DA687B681B6803F58053C3F81421B0
:102AE0007B68DA687B681B6803F58053C3F8202194
:102AF00000BF1437BD465DF8047B704780B485B0D5
:102B000000AF78600023FB6023E07B681969FA68F6
:102B100013465B001344DB000B44BB60BB68002220
:102B20001A60BB6800225A60BB6800229A60BB68CA
:102B30000022DA60BB6800221A61BB6800225A6179
:102B4000B9687B68FA68123243F82210FB680133D7
:102B5000FB60FB68032BD8D97B680022DA657B68B1
:102B600000221A667B6800229A667B680022DA6679
:102B70007B6800229A657B681B6803F580531A46C0
:102B80000323C2F830317B681A697B681B6803F540
:102B90008053C3F81C217B681B6903F148027B68E2
:102BA0001B6803F58053C3F8282100BF1437BD46C6
:102BB0005DF8047B7047000080B491B000AFF8600E
:102BC000B9607A60FB6818337B627B6A1B69FB63C0
:102BD0007B6A1B693B6200237B637B6AFA6B53F859
:102BE00022303B63BB689B68FB620023BB623B6B8C
:102BF000DB6803F00043B3F1004F07D07A6AFB6B48
:102C000004339B0013445B68002B01D0022366E26F
:102C1000BB681B6803F00403002B44D03B6BDA68ED
:102C2000754B1340BA68526A1A433B6BDA603B6BD0
:102C3000DB6843F480323B6BDA60FB681B681A6E1A
:102C4000FB681B6842F480121A66BB681B6803F0BD
:102C50000803002B27D03B6B9B689AB2BB68DB6AEA
:102C60001B041A433B6B9A603B6BDB6843F40032F6
:102C70003B6BDA603B6BDB6823F44022BB681B6B69
:102C80001A433B6BDA60FB681B685A6EFB681B6873
:102C900042F480125A66FB681B681A6DFB681B6859
:102CA00042F080621A65BB681B6803F01003002BBA
:102CB0000ED03B6B9A68514B1340BA6892691A4325
:102CC0003B6B9A603B6BDB6843F080623B6BDA6086
:102CD000BB681B6803F00403002B05D1BB681B68AD
:102CE00003F01003002B36D03B6BDB6843F08042CF
:102CF0003B6BDA60BFF35F8F00BF3B6BDB6843F079
:102D000000423B6BDA60FB6B0133FB63FB6B032B15
:102D100002D9FB6B043BFB637B6AFA6B53F82230EE
:102D20003B637B6B01337B633B6BDB6803F00043EE
:102D3000B3F1004F0FD17B6A3A6A53F822303B63FC
:102D4000BFF35F8F00BF3B6BDB6823F000423B6B40
:102D5000DA600223C3E17B6B01337B63FB6A1B6890
:102D60001A463B6B1A603B6B9A68244B1340FA6A15
:102D700052681A433B6B9A60FB6A9B68002B12D027
:102D8000FB6A9B68FB62FB6A1B681A463B6B5A60D6
:102D90003B6B9A681A4B1340FA6A526812041A4342
:102DA0003B6B9A6008E03B6B00225A603B6B9A6871
:102DB000134B13403A6B9360BB681B6803F010031E
:102DC000002B21D03B6BDB6823F4F002BB681B6A4D
:102DD000DB041A433B6BDA603B6BDA68094B134048
:102DE000BA68D2691A433B6BDA603B6BDB6843F429
:102DF00080223B6BDA602EE00000FFFF00C0FFFF87
:102E0000FFFF00C00000FCFF3B6BDA687B4B134008
:102E1000BA6852681A433B6BDA60BB681B6803F000
:102E20000103002B08D03B6BDB6823F44032BB6806
:102E30005B691A433B6BDA60BB681B6803F02003D5
:102E4000002B08D03B6BDB6823F04062BB681B693A
:102E50001A433B6BDA60BB681B6803F00403002B6A
:102E600008D03B6B9B6823F44042BB689B6A1A43C3
:102E70003B6B9A603B6BDB6843F000523B6BDA6064
:102E80003B6BDB6823F080423B6BDA60BFF35F8F04
:102E900000BF3B6BDB6843F000423B6BDA60BB6812
:102EA0001B6803F00203002B00F0DA803B6BDB6849
:102EB00023F06072BB68DB681A433B6BDA60CFE0DB
:102EC0003B6BDB6823F080523B6BDA60FB6B0133BA
:102ED000FB63FB6B032B02D9FB6B043BFB637B6A3D
:102EE000FA6B53F822303B633B6BDB6823F00052F4
:102EF0003B6BDA603B6BDB6803F00043B3F1004FE0
:102F000007D07A6AFB6B04339B0013445B68002B89
:102F100029D03B6AFB637B6AFA6B53F822303B6330
:102F20000023BB6319E0BFF35F8F00BF3B6BDB681F
:102F300023F000423B6BDA60FB6B0133FB63FB6BFE
:102F4000032B02D9FB6B043BFB637B6AFA6B53F8E0
:102F500022303B63BB6B0133BB63BA6B7B6B9A4222
:102F6000E1D30223BBE07B6B01337B63FB6A9B688D
:102F7000FB62FB6A1B681A463B6B1A603B6B9A68E4
:102F80001F4B1340FA6A52681A433B6B9A60FB6A04
:102F90009B68002B12D0FB6A9B68FB62FB6A1B6874
:102FA0001A463B6B5A603B6B9A68164B1340FA6AA1
:102FB000526812041A433B6B9A6008E03B6B002294
:102FC0005A603B6B9A680F4B13403A6B9360BB6837
:102FD0001B6803F01003002B18D03B6BDA680A4B18
:102FE0001340BA68D2691A433B6BDA603B6BDB680B
:102FF00043F480223B6BDA6020E000BF0080FFFFDB
:1030000000C0FFFFFFFF00C00000FCFF3B6BDA6861
:10301000364B1340BA6852681A433B6BDA60BB68A0
:103020001B6803F00103002B08D03B6BDB6823F423
:103030004032BB685B691A433B6BDA60BB6A0133A1
:10304000BB62BFF35F8F00BF3B6BDB6843F00042A6
:103050003B6BDA603B6BDB6823F080423B6BDA60F2
:10306000FB6A9B68002B7FF42BAF7B68002B06D09C
:103070003B6B9B6843F000423B6B9A6005E03B6B07
:103080009B6823F000423B6B9A603B6BDB6843F02C
:1030900080523B6BDA607B6A5A6A796AFB6B043355
:1030A0009B000B445A607B6AFA6B1A61EFF3108342
:1030B0003B613B69FB6101237B617B6983F3108882
:1030C00000BF7B6A9A6ABB6A13445A1C7B6A9A6285
:1030D000FB69BB61BB6983F3108800BF00231846FE
:1030E0004437BD465DF8047B704700BF0080FFFF9A
:1030F00080B58AB000AFF860B9607A60BB683B62A7
:103100007B68FB610823FB75404B1B7D012B01D1C4
:10311000022376E03D4B01221A75BB68B3F1006FC4
:1031200006D3BB68B3F1016F02D20123BB610CE08F
:10313000BB68B3F1016F06D3BB68B3F1026F02D273
:103140000223BB6101E001235BE0304B00229A6166
:10315000B9694CF2503000F0C1F8034687F82730C7
:1031600097F82730002B47D1BB69012B06D1284B9C
:10317000DB68274A43F00203D36007E0244BD3F80F
:103180000C31234A43F00203C2F80C31BFF36F8FB6
:1031900000BFBFF34F8F00BFFB691A683B6A1A601C
:1031A0003B6A04333B62FB690433FB61FB7D013BFB
:1031B000FB75FB7D002BEFD1BFF36F8F00BFBFF31B
:1031C0004F8F00BFB9694CF2503000F087F80346CA
:1031D00087F82730BB69012B06D10D4BDB680C4A01
:1031E00023F00203D36007E0094BD3F80C31084AFF
:1031F00023F00203C2F80C31044B00221A7597F831
:10320000273018462837BD4680BD00BFA0010024E6
:103210000020005280B400AF184BDB6803F00103BC
:10322000002B0DD0154B164A5A60144B154A5A60A4
:10323000124BDB6803F00103002B01D0012318E0DF
:103240000E4BD3F80C3103F00103002B10D00B4BC5
:103250000B4AC3F80421094B0A4AC3F80421074B5F
:10326000D3F80C3103F00103002B01D0012300E05F
:1032700000231846BD465DF8047B704700200052CD
:1032800023016745AB89EFCD80B400AF124BDB68FB
:10329000114A43F00103D3600F4BDB6803F00103D5
:1032A000002B01D1012311E00B4BD3F80C310A4A5A
:1032B00043F00103C2F80C31074BD3F80C3103F093
:1032C0000103002B01D1012300E000231846BD4675
:1032D0005DF8047B704700BF0020005280B586B0C7
:1032E00000AF7860396004237B6100233B61FEF707
:1032F00055F9F8603B68022B13D1414B7B6110E01C
:103300007B68B3F1FF3F0CD0FEF748F90246FB683B
:10331000D31A7A689A4202D37B68002B01D1032327
:103320006AE07A69374B13407A699A420AD1364B80
:103330001A697B6913407A699A420CBF0123002302
:10334000DBB20CE0304BD3F81031DA437B69134029
:1033500023F00043002B0CBF01230023DBB2002B22
:10336000CED13B68012B05D1274B1A69274B13405F
:103370003B6107E0244BD3F81021244B134043F06A
:1033800000433B613B6923F00043002B17D0204BE7
:103390009A693B6913431E4A93613A69194B13407A
:1033A0003A699A4203D1184A3B69536105E0164ACB
:1033B0003B6923F00043C2F8143101231CE03B6851
:1033C000012B0BD1104B1B6903F48033B3F5803F05
:1033D00011D10D4B4FF480325A610CE00A4BD3F8F7
:1033E000103103F48033B3F5803F04D1064B4FF422
:1033F0008032C3F81421002318461837BD4680BD1B
:10340000040000800F00EF1F002000520000EE17A4
:10341000A001002480B584B000AF7860396000233B
:10342000FB735E4B1B7D012B01D10223B2E05B4B92
:1034300001221A75594B00229A617B685B6803F080
:103440000103002B09D001214CF25030FFF746FF59
:103450000346002B01D00123FB737B685B6803F0FC
:103460000203002B09D002214CF25030FFF736FF47
:103470000346002B01D00123FB73FB7B002B40F0A4
:1034800085807B681B68012B36D17B681A697B6855
:103490005B681946104600F087F87B685B6803F0AC
:1034A0000103002B0FD001214CF25030FFF716FF23
:1034B0000346002B01D00123FB73394BDB68384AEC
:1034C00023F00803D3607B685B6803F00203002BE2
:1034D0005CD002214CF25030FFF700FF0346002B76
:1034E00001D00123FB732E4BD3F80C312C4A23F06F
:1034F0000803C2F80C3149E03B684FF0FF321A6014
:103500007B689B68BB6039E07B6859687B681B6996
:103510001A46B86800F0B2F87B685B6803F00103F4
:10352000002B0CD001214CF25030FFF7D7FE0346A0
:10353000FB731B4BDA681A491A4B1340CB607B684C
:103540005B6803F00203002B0ED002214CF25030D6
:10355000FFF7C4FE0346FB73114BD3F80C2110494F
:10356000104B1340C1F80C31FB7B002B03D03B68A0
:10357000BA681A600AE0BB680133BB607B68DA682E
:103580007B689B681344BA689A42BDD3034B002200
:103590001A75FB7B18461037BD4680BDA00100247C
:1035A00000200052FBF8FFFF80B483B000AF7860CA
:1035B00039603B6803F00303032B22D12E4BDB68F9
:1035C0002D4A23F03003D3602B4BD3F80C312A4A19
:1035D00023F03003C2F80C31274BDA6826497B68A8
:1035E0001343CB60244BD3F80C2123497B6813434E
:1035F000C1F80C31204B9B691F4A43F010039361C3
:1036000033E03B6803F00103002B11D01A4BDB6859
:10361000194A23F03003D360174BDA6816497B68E8
:103620001343CB60144BDB68134A43F08803D36029
:103630003B6803F00203002B17D00F4BD3F80C317B
:103640000D4A23F03003C2F80C310B4BD3F80C2198
:1036500009497B681343C1F80C31074BD3F80C318F
:10366000054A43F08803C2F80C3100BF0C37BD4651
:103670005DF8047B704700BF0020005280B485B025
:1036800000AFF860B9607A60BB6803F00103002BFB
:1036900010D0184BDB68174A23F4E663D360154B50
:1036A000DA68FB6819027B680B431343114A43F045
:1036B0008403D360BB6803F00203002B14D00D4BCE
:1036C000D3F80C310B4A23F4E663C2F80C31094BF2
:1036D000D3F80C21FB6819027B680B431343054A9E
:1036E00043F08403C2F80C3100BF1437BD465DF8C7
:1036F000047B70470020005280B489B000AF78602E
:1037000039600023FB61894B7B6194E13B681A6857
:103710000121FB6901FA03F313403B613B69002B74
:1037200000F086813B685B6803F00303012B05D042
:103730003B685B6803F00303022B30D17B689B6816
:10374000BB61FB695B00032202FA03F3DB43BA6946
:103750001340BB613B68DA68FB695B0002FA03F364
:10376000BA691343BB617B68BA699A607B685B681E
:10377000BB610122FB6902FA03F3DB43BA69134020
:10378000BB613B685B681B0903F00102FB6902FA3D
:1037900003F3BA691343BB617B68BA695A603B683B
:1037A0005B6803F00303032B17D07B68DB68BB6106
:1037B000FB695B00032202FA03F3DB43BA6913409F
:1037C000BB613B689A68FB695B0002FA03F3BA6964
:1037D0001343BB617B68BA69DA603B685B6803F0DE
:1037E0000303022B23D1FB69DA087B68083253F804
:1037F0002230BB61FB6903F007039B000F2202FA32
:1038000003F3DB43BA691340BB613B681A69FB6988
:1038100003F007039B0002FA03F3BA691343BB6189
:10382000FB69DA087B680832B96943F822107B68C3
:103830001B68BB61FB695B00032202FA03F3DB43F5
:10384000BA691340BB613B685B6803F00302FB6924
:103850005B0002FA03F3BA691343BB617B68BA6980
:103860001A603B685B6803F44033002B00F0E08093
:103870002F4BD3F8F4302E4A43F00203C2F8F43051
:103880002B4BD3F8F43003F00203FB60FB68294AAA
:10389000FB699B08023352F82330BB61FB6903F0DC
:1038A00003039B000F2202FA03F3DB43BA691340C0
:1038B000BB617B68204A934252D07B681F4A934287
:1038C00031D07B681E4A93422BD07B681D4A9342BD
:1038D00025D07B681C4A93421FD07B681B4A9342C9
:1038E00019D07B681A4A934213D07B68194A9342D5
:1038F0000DD07B68184A934207D07B68174A9342E1
:1039000001D109232DE00A232BE0082329E0072316
:1039100027E0062325E0052323E0042321E00323F9
:103920001FE002231DE001231BE000BF80000058C0
:1039300000440258000400580000025800040258D5
:1039400000080258000C02580010025800140258D7
:1039500000180258001C0258002002580024025887
:103960000023FA6902F0030292009340BA691343FC
:10397000BB613849FB699B080233BA6941F82320CF
:103980004FF0B0431B68BB613B69DB43BA6913402E
:10399000BB613B685B6803F48013002B03D0BA69FA
:1039A0003B691343BB614FF0B042BB6913604FF0FA
:1039B000B0435B68BB613B69DB43BA691340BB61E1
:1039C0003B685B6803F40013002B03D0BA693B69C2
:1039D0001343BB614FF0B042BB6953607B695B68C6
:1039E000BB613B69DB43BA691340BB613B685B6801
:1039F00003F40033002B03D0BA693B691343BB6166
:103A00007B69BA695A607B691B68BB613B69DB43B0
:103A1000BA691340BB613B685B6803F48033002BD9
:103A200003D0BA693B691343BB617B69BA691A6009
:103A3000FB690133FB613B681A68FB6922FA03F3F7
:103A4000002B7FF463AE00BF00BF2437BD465DF896
:103A5000047B70470004005880B485B000AF7860E4
:103A60000B467B807B681A697B881340002B02D051
:103A70000123FB7301E00023FB73FB7B1846143723
:103A8000BD465DF8047B704780B483B000AF7860BA
:103A90000B467B8013467B707B78002B03D07A88A3
:103AA0007B689A6103E07B881A047B689A6100BF97
:103AB0000C37BD465DF8047B7047000080B584B0CC
:103AC00000AF7860294BDB6803F00703062B0AD0B0
:103AD000264BDB6803F03F037A689A4201D001234A
:103AE00040E000233EE0214BDB6823F03F021F490A
:103AF0007B681343CB60FDF751FDF86009E0FDF7EB
:103B00004DFD0246FB68D31AB3F57A7F01D9012334
:103B100028E0164B5B6803F40053B3F5005FEED169
:103B20007B681E2B08D07B682E2B05D07B681D2B55
:103B300002D07B682D2B14D1FDF730FDF86009E031
:103B4000FDF72CFD0246FB68D31AB3F57A7F01D945
:103B5000012307E0054BDB6803F48033B3F5803FB6
:103B6000EED1002318461037BD4680BD00480258EC
:103B700080B58CB000AF78607B68002B02D1012348
:103B800000F048BC7B681B6803F00103002B00F0C9
:103B90008880994B1B6903F03803FB62964B9B6A44
:103BA000BB62FB6A102B07D0FB6A182B11D1BB6AD2
:103BB00003F00303022B0CD18F4B1B6803F400337B
:103BC000002B6DD07B685B68002B69D1012300F06E
:103BD00021BC7B685B68B3F5803F06D1864B1B68D0
:103BE000854A43F4803313602EE07B685B68002BCA
:103BF0000CD1814B1B68804A23F4803313607E4BC9
:103C00001B687D4A23F4802313601DE07B685B689A
:103C1000B3F5A02F0CD1784B1B68774A43F480236F
:103C20001360754B1B68744A43F4803313600BE0D8
:103C3000714B1B68704A23F4803313606E4B1B6812
:103C40006D4A23F4802313607B685B68002B13D0DC
:103C5000FDF7A4FC786208E0FDF7A0FC02467B6A51
:103C6000D31A642B01D90323D4E3634B1B6803F4F9
:103C70000033002BF0D014E0FDF790FC786208E0F0
:103C8000FDF78CFC02467B6AD31A642B01D903230F
:103C9000C0E3594B1B6803F40033002BF0D100E064
:103CA00000BF7B681B6803F00203002B00F0CA8092
:103CB000514B1B6903F038033B624F4B9B6AFB611E
:103CC0003B6A002B07D03B6A182B56D1FB6903F0E7
:103CD0000303002B51D1484B1B6803F00403002B56
:103CE00005D07B68DB68002B01D1012392E3424BB6
:103CF0001B6823F019027B68DB683F4913430B60A4
:103D0000FDF74CFC786208E0FDF748FC02467B6A50
:103D1000D31A022B01D903237CE3374B1B6803F032
:103D20000403002BF0D0FDF769FC034641F20302C7
:103D3000934217D87B681B69402B08D12E4B5B68D8
:103D400023F47C332C4A43F4003353607AE02A4B4B
:103D50005B6823F47C327B681B691B032649134391
:103D60004B606FE0244B5B6823F0FE427B681B696D
:103D70001B06214913434B6064E07B68DB68002B22
:103D800047D01D4B1B6823F019027B68DB681A497A
:103D900013430B60FDF702FC786208E0FDF7FEFBC1
:103DA00002467B6AD31A022B01D9032332E3124B5A
:103DB0001B6803F00403002BF0D0FDF71FFC034643
:103DC00041F20302934219D87B681B69402B08D14A
:103DD000094B5B6823F47C33074A43F40033536098
:103DE00030E0054B5B6823F47C327B681B691B0366
:103DF000014913434B6025E0004402589A4B5B682D
:103E000023F0FE427B681B691B06974913434B60F6
:103E100018E0954B1B68944A23F001031360FDF7EB
:103E2000BDFB786208E0FDF7B9FB02467B6AD31A56
:103E3000022B01D90323EDE28B4B1B6803F0040333
:103E4000002BF0D17B681B6803F01003002B00F0FF
:103E5000A980854B1B6903F03803BB61824B9B6AC9
:103E60007B61BB69082B07D0BB69182B3AD17B69F2
:103E700003F00303012B35D17B4B1B6803F48073E4
:103E8000002B05D07B68DB69802B01D00123C1E2C8
:103E9000FDF7B4FB034641F20302934217D87B6857
:103EA0001B6A202B08D1704B5B6823F0F8436E4AE5
:103EB00043F08043536075E06B4B5B6823F0F8423E
:103EC0007B681B6A9B06684913434B606AE0664B3C
:103ED000DB6823F07C527B681B6A1B066249134334
:103EE000CB605FE07B68DB69002B42D05E4B1B68D8
:103EF0005D4A43F080031360FDF750FB786208E0F1
:103F0000FDF74CFB02467B6AD31A022B01D903232F
:103F100080E2554B1B6803F48073002BF0D0FDF753
:103F20006DFB034641F20302934217D87B681B6A7C
:103F3000202B08D14C4B5B6823F0F8434A4A43F0EE
:103F4000804353602EE0484B5B6823F0F8427B6867
:103F50001B6A9B06444913434B6023E0424BDB68DA
:103F600023F07C527B681B6A1B063F491343CB60DE
:103F700018E03D4B1B683C4A23F080031360FDF7BB
:103F80000DFB786208E0FDF709FB02467B6AD31A55
:103F9000022B01D903233DE2334B1B6803F48073EA
:103FA000002BF0D17B681B6803F00803002B36D090
:103FB0007B685B69002B19D02B4B5B6F2A4A43F05F
:103FC00001035367FDF7EAFA786208E0FDF7E6FAC5
:103FD00002467B6AD31A022B01D903231AE2224B31
:103FE0005B6F03F00203002BF0D018E01E4B5B6FF9
:103FF0001D4A23F001035367FDF7D0FA786208E009
:10400000FDF7CCFA02467B6AD31A022B01D90323AF
:1040100000E2154B5B6F03F00203002BF0D17B68CD
:104020001B6803F02003002B39D07B689B69002BB1
:104030001CD00D4B1B680C4A43F480531360FDF7F2
:10404000ADFA786208E0FDF7A9FA02467B6AD31A56
:10405000022B01D90323DDE1034B1B6803F400535A
:10406000002BF0D01BE000BF004402589B4B1B68A4
:104070009A4A23F480531360FDF790FA786208E0BF
:10408000FDF78CFA02467B6AD31A022B01D903236F
:10409000C0E1924B1B6803F40053002BF0D17B6806
:1040A0001B6803F00403002B00F081808C4B1B681D
:1040B0008B4A43F480731360FDF770FA786208E06E
:1040C000FDF76CFA02467B6AD31A642B01D90323ED
:1040D000A0E1834B1B6803F48073002BF0D07B6856
:1040E0009B68012B06D17D4B1B6F7C4A43F001037B
:1040F00013672DE07B689B68002B0CD1774B1B6FFF
:10410000764A23F001031367744B1B6F734A23F045
:10411000040313671CE07B689B68052B0CD16F4B75
:104120001B6F6E4A43F0040313676C4B1B6F6B4AA3
:1041300043F0010313670BE0684B1B6F674A23F0E2
:1041400001031367654B1B6F644A23F00403136775
:104150007B689B68002B15D0FDF720FA78620AE097
:10416000FDF71CFA02467B6AD31A41F28832934269
:1041700001D903234EE1594B1B6F03F00203002BBF
:10418000EED014E0FDF70AFA78620AE0FDF706FACD
:1041900002467B6AD31A41F28832934201D9032343
:1041A00038E14E4B1B6F03F00203002BEED17B680E
:1041B0005B6A002B00F02D81484B1B6903F038032C
:1041C000182B00F0BD807B685B6A022B40F09E805C
:1041D000424B1B68414A23F080731360FDF7DEF900
:1041E000786208E0FDF7DAF902467B6AD31A022BFF
:1041F00001D903230EE1394B1B6803F00073002B38
:10420000F0D1364B9A6A374B13407A68916A7A68D4
:10421000D26A12010A43314913438B627B681B6BDC
:10422000013BC3F308027B685B6B013B5B029BB203
:104230001A437B689B6B013B1B0403F4FE031A4388
:104240007B68DB6B013B1B0603F0FE4323491343F2
:104250000B63224BDB6A214A23F00103D3621F4B1D
:104260005A6B214B13407A68926CD2001B4913435E
:104270004B631A4BDB6A23F00C027B681B6C1749FB
:104280001343CB62154BDB6A23F002027B685B6C45
:1042900012491343CB62114BDB6A104A43F480335B
:1042A000D3620E4BDB6A0D4A43F40033D3620B4BEF
:1042B000DB6A0A4A43F48023D362084BDB6A074A6D
:1042C00043F00103D362054B1B68044A43F080733B
:1042D0001360FDF763F9786211E000BF00440258F3
:1042E000004802580CFCFFFF0700FFFFFDF756F9DE
:1042F00002467B6AD31A022B01D903238AE0474B7B
:104300001B6803F00073002BF0D082E0434B1B6866
:10431000424A23F080731360FDF740F9786208E0A9
:10432000FDF73CF902467B6AD31A022B01D903231D
:1043300070E03A4B1B6803F00073002BF0D168E08B
:10434000364B9B6A3B61354B1B6BFB607B685B6A42
:10435000012B31D03B6903F003027B689B6A9A42D0
:104360002AD13B691B0903F03F027B68DB6A9A4252
:1043700022D1FB68C3F308027B681B6B013B9A42A6
:104380001AD1FB685B0A03F07F027B685B6B013B21
:104390009A4211D1FB681B0C03F07F027B689B6B78
:1043A000013B9A4208D1FB681B0E03F07F027B6839
:1043B000DB6B013B9A4201D001232BE0174B5B6B77
:1043C000DB08C3F30C033B617B689B6C3A699A4240
:1043D0001FD0124BDB6A114A23F00103D362FDF7B1
:1043E000DDF8786200BFFDF7D9F802467B6A934298
:1043F000F9D00A4B5A6B0A4B13407A68926CD20080
:10440000064913434B63054BDB6A044A43F001033F
:10441000D362002318463037BD4680BD00440258A1
:104420000700FFFF80B586B000AF786039607B6819
:10443000002B01D101239CE18A4B1B6803F00F0381
:104440003A689A4210D9874B1B6823F00F028549BE
:104450003B6813430B60834B1B6803F00F033A6800
:104460009A4201D0012384E17B681B6803F00403B6
:10447000002B10D07B681A697B4B9B6903F070039B
:104480009A4208D9784B9B6923F070027B681B69BC
:10449000754913438B617B681B6803F00803002B8D
:1044A00010D07B685A69704BDB6903F070039A4245
:1044B00008D96D4BDB6923F070027B685B696A4940
:1044C0001343CB617B681B6803F01003002B10D0F3
:1044D0007B689A69644BDB6903F4E0639A4208D90C
:1044E000614BDB6923F4E0627B689B695E4913439F
:1044F000CB617B681B6803F02003002B10D07B6826
:10450000DA69594B1B6A03F070039A4208D9564B7B
:104510001B6A23F070027B68DB69534913430B620B
:104520007B681B6803F00203002B10D07B68DA68FD
:104530004D4B9B6903F00F039A4208D94A4B9B6984
:1045400023F00F027B68DB68474913438B617B686C
:104550001B6803F00103002B55D0434B9B6923F4E8
:1045600070627B689B68404913438B617B685B6822
:10457000022B07D13C4B1B6803F40033002B21D1E5
:104580000123F6E07B685B68032B07D1364B1B6881
:1045900003F00073002B15D10123EAE07B685B6810
:1045A000012B07D1304B1B6803F48073002B09D11A
:1045B0000123DEE02C4B1B6803F00403002B01D128
:1045C0000123D6E0284B1B6923F007027B685B6858
:1045D000254913430B61FCF7E1FF78610AE0FCF722
:1045E000DDFF02467B69D31A41F28832934201D93A
:1045F0000323BEE01C4B1B6903F038027B685B6839
:10460000DB009A42EBD17B681B6803F00203002BAE
:1046100010D07B68DA68144B9B6903F00F039A4251
:1046200008D2114B9B6923F00F027B68DB680E49AF
:1046300013438B610B4B1B6803F00F033A689A42DC
:1046400014D2084B1B6823F00F0206493B68134342
:104650000B60044B1B6803F00F033A689A4205D0C5
:10466000012386E000200052004402587B681B684A
:1046700003F00403002B10D07B681A693F4B9B6941
:1046800003F070039A4208D23C4B9B6923F07002FE
:104690007B681B69394913438B617B681B6803F096
:1046A0000803002B10D07B685A69344BDB6903F098
:1046B00070039A4208D2314BDB6923F070027B68A9
:1046C0005B692E491343CB617B681B6803F01003C1
:1046D000002B10D07B689A69284BDB6903F4E063F8
:1046E0009A4208D2254BDB6923F4E0627B689B6920
:1046F00022491343CB617B681B6803F02003002B26
:1047000010D07B68DA691D4B1B6A03F070039A4274
:1047100008D21A4B1B6A23F070027B68DB691749C9
:1047200013430B6200F034F80246144B9B691B0ADA
:1047300003F00F031249CB5C03F01F0322FA03F3CB
:104740003B610E4B9B6903F00F030D4AD35C03F0F2
:104750001F033A6922FA03F30A4A13600A4A3B69C3
:1047600013600A4B1B681846FCF720FB0346FB73DB
:10477000FB7B18461837BD4680BD00BF0044025879
:10478000DC54010804000024000000241C00002464
:1047900080B489B000AFB34B1B6903F03803182B0A
:1047A00000F2558101A252F823F000BF1148000821
:1047B0004F4A00084F4A00084F4A00084F4A000875
:1047C0004F4A00084F4A00084F4A0008374800087F
:1047D0004F4A00084F4A00084F4A00084F4A000855
:1047E0004F4A00084F4A00084F4A00083D48000859
:1047F0004F4A00084F4A00084F4A00084F4A000835
:104800004F4A00084F4A00084F4A00084348000832
:10481000944B1B6803F02003002B09D0914B1B68BD
:10482000DB0803F00303904A22FA03F3BB6111E1B2
:104830008D4BBB610EE18D4BBB610BE18C4BBB61C2
:1048400008E1884B9B6A03F003037B61854B9B6AFD
:104850001B0903F03F033B61824BDB6A03F001035A
:10486000FB60804B5B6BDB08C3F30C03FA6802FB55
:1048700003F307EE903AF8EE677AC7ED027A3B69E8
:10488000002B00F0E1807B69022B00F083807B69C4
:10489000022B00F2A1807B69002B03D07B69012BE6
:1048A00056D099E06F4B1B6803F02003002B2DD0EE
:1048B0006C4B1B68DB0803F003036B4A22FA03F31B
:1048C0007B607B6807EE903AF8EE676A3B6907EE1B
:1048D000903AF8EE677A86EEA77A624B1B6BC3F3C9
:1048E000080307EE903AF8EE676A97ED026ADFED8B
:1048F000615AC6EE257A76EEA77AF7EE006A77EE71
:10490000A67A67EE277AC7ED077A87E03B6907EE5C
:10491000903AF8EE677ADFED586A86EEA77A514B47
:104920001B6BC3F3080307EE903AF8EE676A97ED46
:10493000026ADFED505AC6EE257A76EEA77AF7EED8
:10494000006A77EEA67A67EE277AC7ED077A65E008
:104950003B6907EE903AF8EE677ADFED486A86EE3B
:10496000A77A404B1B6BC3F3080307EE903AF8EEAF
:10497000676A97ED026ADFED3F5AC6EE257A76EE5A
:10498000A77AF7EE006A77EEA67A67EE277AC7ED88
:10499000077A43E03B6907EE903AF8EE677ADFED7D
:1049A000386A86EEA77A2F4B1B6BC3F3080307EE1A
:1049B000903AF8EE676A97ED026ADFED2E5AC6EE7E
:1049C000257A76EEA77AF7EE006A77EEA67A67EE9A
:1049D000277AC7ED077A21E03B6907EE903AF8EEB7
:1049E000677ADFED266A86EEA77A1E4B1B6BC3F350
:1049F000080307EE903AF8EE676A97ED026ADFED7A
:104A00001D5AC6EE257A76EEA77AF7EE006A77EEA3
:104A1000A67A67EE277AC7ED077A00BF114B1B6BAA
:104A20005B0A03F07F0301333B603B6807EE903A7B
:104A3000B8EE677AD7ED076AC6EE877AFCEEE77ABA
:104A400017EE903ABB6105E00023BB6102E0074B23
:104A5000BB6100BFBB6918462437BD465DF8047BC7
:104A6000704700BF004402580090D00300093D0089
:104A700040787D01000000460024744C0024744AF4
:104A800020BCBE4B80B582B000AFFFF781FE02466E
:104A9000104B9B691B0A03F00F030F49CB5C03F01B
:104AA0001F0322FA03F37B600A4B9B6903F00F0399
:104AB000094AD35C03F01F037A6822FA03F3074A1A
:104AC0001360074A7B681360044B1B68184608375D
:104AD000BD4680BD00440258DC5401080400002497
:104AE0000000002480B500AFFFF7CCFF0246064B64
:104AF000DB691B0903F007030449CB5C03F01F03C8
:104B000022FA03F3184680BD00440258DC54010821
:104B100080B483B000AF786039607B683F221A6050
:104B20001A4B1B6903F007027B685A60174B9B699D
:104B300003F470627B689A60144B9B6903F00F0268
:104B40007B68DA60114B9B6903F070027B681A6125
:104B50000E4BDB6903F070027B685A610B4BDB691B
:104B600003F4E0627B689A61084B1B6A03F07002F1
:104B70007B68DA61064B1B6803F00F023B681A6022
:104B800000BF0C37BD465DF8047B704700440258F7
:104B90000020005280B582B000AF78607B68002BA7
:104BA00001D1012349E07B6893F83D30DBB2002B53
:104BB00006D17B68002283F83C207868FCF7D4F8A3
:104BC0007B68022283F83D207B681A687B68043387
:104BD0001946104600F0D6FA7B68012283F8482077
:104BE0007B68012283F83E207B68012283F83F2006
:104BF0007B68012283F840207B68012283F84120F2
:104C00007B68012283F842207B68012283F84320DD
:104C10007B68012283F844207B68012283F84520C9
:104C20007B68012283F846207B68012283F84720B5
:104C30007B68012283F83D20002318460837BD46D3
:104C400080BD000080B485B000AF78607B6893F8C9
:104C50003D30DBB2012B01D0012354E07B680222FE
:104C600083F83D207B681B68DA687B681B6842F02C
:104C70000102DA607B681B68264A934222D07B6877
:104C80001B68B3F1804F1DD07B681B68224A93429A
:104C900018D07B681B68214A934213D07B681B683D
:104CA0001F4A93420ED07B681B681E4A934209D06C
:104CB0007B681B681C4A934204D07B681B681B4AB4
:104CC000934215D17B681B689A68194B1340FB60AF
:104CD000FB68062B15D0FB68B3F5803F11D07B68CD
:104CE0001B681A687B681B6842F001021A6008E0C2
:104CF0007B681B681A687B681B6842F001021A60B7
:104D000000E000BF002318461437BD465DF8047B61
:104D1000704700BF00000140000400400008004050
:104D2000000C004000040140001800400040014019
:104D30000700010080B584B000AF78607B681B6815
:104D4000DB68FB607B681B681B69BB60BB6803F0AA
:104D50000203002B20D0FB6803F00203002B1BD0C2
:104D60007B681B686FF002021A617B6801221A7768
:104D70007B681B689B6903F00303002B03D07868F2
:104D800000F0E2F905E0786800F0D4F9786800F006
:104D9000E5F97B6800221A77BB6803F00403002B57
:104DA00020D0FB6803F00403002B1BD07B681B683A
:104DB0006FF004021A617B6802221A777B681B6815
:104DC0009B6903F44073002B03D0786800F0BCF9B2
:104DD00005E0786800F0AEF9786800F0BFF97B680C
:104DE00000221A77BB6803F00803002B20D0FB6871
:104DF00003F00803002B1BD07B681B686FF00802D0
:104E00001A617B6804221A777B681B68DB6903F0F0
:104E10000303002B03D0786800F096F905E078686A
:104E200000F088F9786800F099F97B6800221A7719
:104E3000BB6803F01003002B20D0FB6803F01003C5
:104E4000002B1BD07B681B686FF010021A617B6817
:104E500008221A777B681B68DB6903F44073002B18
:104E600003D0786800F070F905E0786800F062F926
:104E7000786800F073F97B6800221A77BB6803F04A
:104E80000103002B0CD0FB6803F00103002B07D0BB
:104E90007B681B686FF001021A617868FBF732FFCC
:104EA000BB6803F08003002B04D1BB6803F40053FC
:104EB000002B0CD0FB6803F08003002B07D07B682D
:104EC0001B686FF402521A61786800F037FBBB6808
:104ED00003F48073002B0CD0FB6803F08003002BDD
:104EE00007D07B681B686FF480721A61786800F0E5
:104EF0002FFBBB6803F04003002B0CD0FB6803F0D2
:104F00004003002B07D07B681B686FF040021A61DA
:104F1000786800F02DF9BB6803F02003002B0CD05B
:104F2000FB6803F02003002B07D07B681B686FF041
:104F300020021A61786800F0F7FA00BF1037BD460A
:104F400080BD000080B584B000AF78603960002378
:104F5000FB737B6893F83C30012B01D10223DCE02A
:104F60007B68012283F83C207B68022283F83D2085
:104F70007B681B689B68BB60BA686A4B1340BB6068
:104F8000BB6823F47F43BB607B681B68BA689A6088
:104F90003B681B68644A934200F0A980624A9342CE
:104FA00000F2AE80614A934200F0A1805F4A9342D2
:104FB00000F2A6805E4A934200F099805C4A9342D8
:104FC00000F29E80B3F1101F00F09180B3F1101F2A
:104FD00000F29680B3F5801F00F08980B3F5801F42
:104FE00000F28E80B3F5005F3ED0B3F5005F00F2B3
:104FF0008780B3F5805F00F08680B3F5805F7FD84F
:10500000702B1AD0702B7BD8602B50D0602B77D8A8
:10501000502B3CD0502B73D8402B58D0402B6FD8FE
:10502000302B64D0302B6BD8202B60D0202B67D84E
:10503000002B5CD0102B5AD062E07B6818683B686C
:1050400099683B685A683B68DB6800F0BFF97B6889
:105050001B689B68BB60BB6843F07703BB607B68E1
:105060001B68BA689A604FE07B6818683B6899686B
:105070003B685A683B68DB6800F0A8F97B681B68EE
:105080009A687B681B6842F480429A603CE07B68C7
:1050900018683B6859683B68DB681A4600F018F9E5
:1050A0007B681B685021184600F072F92CE07B6881
:1050B00018683B6859683B68DB681A4600F037F9A6
:1050C0007B681B686021184600F062F91CE07B6871
:1050D00018683B6859683B68DB681A4600F0F8F8C6
:1050E0007B681B684021184600F052F90CE07B6891
:1050F0001A683B681B681946104600F049F903E03E
:105100000123FB7300E000BF7B68012283F83D2090
:105110007B68002283F83C20FB7B18461037BD4695
:1051200080BD00BF88FFCEFF40001000300010009F
:105130002000100080B483B000AF786000BF0C374F
:10514000BD465DF8047B704780B483B000AF7860E3
:1051500000BF0C37BD465DF8047B704780B483B058
:1051600000AF786000BF0C37BD465DF8047B704728
:1051700080B483B000AF786000BF0C37BD465DF8E7
:10518000047B704780B485B000AF786039607B687D
:105190001B68FB607B68464A934213D07B68B3F17F
:1051A000804F0FD07B68434A93420BD07B68424AC2
:1051B000934207D07B68414A934203D07B68404AC0
:1051C000934208D1FB6823F07003FB603B685B6887
:1051D000FA681343FB607B68354A93421FD07B68B3
:1051E000B3F1804F1BD07B68324A934217D07B6863
:1051F000314A934213D07B68304A93420FD07B6888
:105200002F4A93420BD07B682E4A934207D07B688B
:105210002D4A934203D07B682C4A934208D1FB6805
:1052200023F44073FB603B68DB68FA681343FB6060
:10523000FB6823F080023B685B691343FB607B687B
:10524000FA681A603B689A687B68DA623B681A6899
:105250007B689A627B68164A93420FD07B68184A33
:1052600093420BD07B68174A934207D07B68164A5B
:10527000934203D07B68154A934203D13B681A6975
:105280007B681A637B6801225A617B681B6903F0A3
:105290000103012B05D17B681B6923F001027B68A8
:1052A0001A6100BF1437BD465DF8047B704700BF2C
:1052B000000001400004004000080040000C0040D5
:1052C000000401400040014000440140004801400A
:1052D00080B487B000AFF860B9607A60FB681B6A81
:1052E0007B61FB681B6A23F00102FB681A62FB68A2
:1052F0009B693B613B6923F0F0033B617B681B01C9
:105300003A6913433B617B6923F00A037B617A6945
:10531000BB6813437B61FB683A699A61FB687A69F1
:105320001A6200BF1C37BD465DF8047B704780B42D
:1053300087B000AFF860B9607A60FB681B6A7B6178
:10534000FB681B6A23F01002FB681A62FB689B690A
:105350003B613B6923F470433B617B681B033A6903
:1053600013433B617B6923F0A0037B61BB681B0196
:105370007A6913437B61FB683A699A61FB687A69D1
:105380001A6200BF1C37BD465DF8047B7047000001
:1053900080B485B000AF786039607B689B68FB6043
:1053A000FA68094B1340FB603A68FB68134343F00B
:1053B0000703FB607B68FA689A6000BF1437BD463C
:1053C0005DF8047B704700BF8FFFCFFF80B487B0CC
:1053D00000AFF860B9607A603B60FB689B687B61F6
:1053E0007B6923F47F437B613B681A027B681A4325
:1053F000BB6813437A6913437B61FB687A699A60DF
:1054000000BF1C37BD465DF8047B704780B485B093
:1054100000AF786039607B6893F83C30012B01D194
:1054200002236DE07B68012283F83C207B68022226
:1054300083F83D207B681B685B68FB607B681B68AA
:105440009B68BB607B681B68304A934204D07B68D2
:105450001B682F4A934208D1FB6823F47003FB605A
:105460003B685B68FA681343FB60FB6823F07003DA
:10547000FB603B681B68FA681343FB607B681B6832
:10548000FA685A607B681B68204A934222D07B6886
:105490001B68B3F1804F1DD07B681B681D4A934287
:1054A00018D07B681B681C4A934213D07B681B682A
:1054B0001A4A93420ED07B681B68154A934209D062
:1054C0007B681B68164A934204D07B681B68154AA8
:1054D00093420CD1BB6823F08003BB603B689B68A0
:1054E000BA681343BB607B681B68BA689A607B68C4
:1054F000012283F83D207B68002283F83C200023B2
:1055000018461437BD465DF8047B70470000014023
:10551000000401400004004000080040000C00406E
:10552000001800400040014080B483B000AF7860B4
:1055300000BF0C37BD465DF8047B704780B483B074
:1055400000AF786000BF0C37BD465DF8047B704744
:1055500080B483B000AF786000BF0C37BD465DF803
:10556000047B704780B586B000AFF8600B467B8146
:10557000C7F804C00023FB7500233B610FE07B8963
:105580001946F868FEF768FA03461A46FB7D13448D
:10559000FB750120FCF70EF83B6901333B613B6969
:1055A000092BECDDFB7D052B8CBF01230023DBB237
:1055B00018461837BD4680BDB0B5A6B004AF07F198
:1055C00098033B60894BC0221A70884BA8225A70FE
:1055D000864B23229A70854B0522DA70844BFF227A
:1055E0001A70834BFF225A70814BFF229A70804BB6
:1055F0000022DA707F4B00221A707E4B00225A7014
:105600007C4B00229A707B4B0022DA70002387F8D3
:1056100087303B469C4620217748FFF7A3FF03468F
:105620005AB297F9873013435BB287F887303B460D
:105630009C4640217048FFF795FF03465B005AB235
:1056400097F9873013435BB287F887303B469C4617
:1056500080216948FFF786FF03469B005AB297F9FD
:10566000873013435BB287F887303B469C464FF444
:1056700080716148FFF776FF0346DB005AB297F965
:10568000873013435BB287F8873097F887305B4ADF
:1056900013605A4B1B68194659480BF095FD594B3E
:1056A00007F144041D460FCD0FC40FCD0FC40FCD1D
:1056B0000FC495E80F0084E80F00534B3C1D1D46B6
:1056C0000FCD0FC40FCD0FC40FCD0FC495E80F0041
:1056D00084E80F0010214848FEF7BEF9034687F81A
:1056E000863097F88630194648480BF06DFD434BDD
:1056F0001B680F2B00F2928097F88630012B3FD168
:105700003E4B1B689B0088333B4413F8842C374B7B
:105710001A703A4B1B689B0088333B4413F8832C68
:10572000324B5A70354B1B689B0088333B4413F84F
:10573000822C2E4B9A70314B1B689B0088333B4464
:1057400013F8812C294BDA70284B1B781946274B0C
:105750005B781A46254B9B781846244BDB780093E0
:1057600003462B480BF030FD244B1B680F33234AB4
:105770001360224B1B68194626480BF025FD62E09A
:105780001E4B1B689B0088333B4413F8442C174B7B
:105790001A701A4B1B689B0088333B4413F8432C48
:1057A000124B5A70154B1B689B0088333B4413F80F
:1057B000422C0E4B9A70114B1B689B0088333B4464
:1057C00013F8412C094BDA70084B1B781946074B2C
:1057D0005B781A46054B9B781846044BDB780093A0
:1057E00003460D480BF0F0FC2DE000BF040200243E
:1057F000080200240C02002400140258480100246E
:10580000F4230108B0240108F02401081024010841
:105810002424010850240108682401087F4B1B68D8
:1058200019467F480BF0D0FC7E4BC0221A707D4B8E
:10583000A8225A707B4B23229A707A4B3222DA705C
:10584000764B00221A6002F003F8764B1B781A069A
:10585000744B5B781B041A43724B9B781B021343F7
:10586000704AD27813431A066E4B1B7819066D4B9B
:105870005B781B0419436B4B9B781B020B436949F4
:10588000C9780B431B0203F47F031A43654B1B7853
:105890001906644B5B781B041943624B9B781B020F
:1058A0000B436049C9780B431B0A03F47F431A4337
:1058B0005C4B1B7819065B4B5B781B041943594BF7
:1058C0009B781B020B435749C9780B431B0E1343AC
:1058D000554A1360554B1B781A06544B5B781B04D2
:1058E0001A43524B9B781B021343504AD2781343FE
:1058F0001A064E4B1B7819064C4B5B781B04194358
:105900004A4B9B781B020B434849C9780B431B0247
:1059100003F47F031A43454B1B781906434B5B780E
:105920001B041943414B9B781B020B433F49C97829
:105930000B431B0A03F47F431A433C4B1B781906A5
:105940003A4B5B781B041943384B9B781B020B4383
:105950003649C9780B431B0E1343354A1360354B48
:105960001B781A06334B5B781B041A43314B9B7828
:105970001B0213432F4AD27813431A062D4B1B7870
:1059800019062C4B5B781B0419432A4B9B781B028E
:105990000B432849C9780B431B0203F47F031A43C6
:1059A000244B1B781906234B5B781B041943214BAE
:1059B0009B781B020B431F49C9780B431B0A03F456
:1059C0007F431A431B4B1B7819061A4B5B781B0449
:1059D0001943184B9B781B020B431649C9780B439C
:1059E0001B0E1343144A1360144B0293144B019380
:1059F00000230093104B0E4A0B49124803F020FD80
:105A0000104803F0D3FE0F4803F0E0FE0E490D48A6
:105A100003F0DEFF00BF8837BD46B0BD480100245B
:105A20009424010804020024F80100240802002440
:105A3000FC0100240C02002400020024C5710008AF
:105A4000B95D0008C00100249D5A000880B582B0ED
:105A500000AF7860FBF7A2FD0246084B1B68D31A23
:105A6000632B07D9FBF79AFD0346044A1360786855
:105A700000F0F2FA00BF0837BD4680BDBC0100242B
:105A800080B500AF044800F077F90AF0A5FD0248A0
:105A9000FFF7DCFF00BF80BDC001002480B483B0ED
:105AA00000AF786000BF0C37BD465DF8047B7047DF
:105AB00080B588B000AF78600023FB77554B564A1D
:105AC0001A6000233B7680237B76E123BB7600239C
:105AD000FB7600233B7702237B774E4A07F11803BE
